{
  "contractName": "Borrow",
  "abi": [
    {
      "anonymous": false,
      "inputs": [
        {
          "indexed": false,
          "name": "tokenId",
          "type": "uint256"
        },
        {
          "indexed": false,
          "name": "price",
          "type": "uint256"
        },
        {
          "indexed": false,
          "name": "amount",
          "type": "uint256"
        },
        {
          "indexed": false,
          "name": "slippage",
          "type": "uint256"
        },
        {
          "indexed": false,
          "name": "timestamp",
          "type": "uint256"
        },
        {
          "indexed": false,
          "name": "user",
          "type": "address"
        }
      ],
      "name": "BorrowAndTrade",
      "type": "event"
    },
    {
      "anonymous": false,
      "inputs": [
        {
          "indexed": false,
          "name": "tokenPairs",
          "type": "address"
        },
        {
          "indexed": false,
          "name": "orderType",
          "type": "string"
        },
        {
          "indexed": false,
          "name": "direction",
          "type": "string"
        },
        {
          "indexed": false,
          "name": "pay",
          "type": "uint256"
        },
        {
          "indexed": false,
          "name": "borrow",
          "type": "uint256"
        },
        {
          "indexed": false,
          "name": "status",
          "type": "string"
        }
      ],
      "name": "CreateOrder",
      "type": "event"
    },
    {
      "constant": false,
      "inputs": [],
      "name": "borrow",
      "outputs": [],
      "payable": false,
      "stateMutability": "nonpayable",
      "type": "function"
    },
    {
      "constant": false,
      "inputs": [
        {
          "name": "tokenPairs",
          "type": "address"
        },
        {
          "name": "orderType",
          "type": "string"
        },
        {
          "name": "direction",
          "type": "string"
        },
        {
          "name": "pay",
          "type": "uint256"
        },
        {
          "name": "borrow",
          "type": "uint256"
        },
        {
          "name": "status",
          "type": "string"
        }
      ],
      "name": "createOrder",
      "outputs": [],
      "payable": false,
      "stateMutability": "nonpayable",
      "type": "function"
    }
  ],
  "bytecode": "0x608060405234801561001057600080fd5b506102af806100206000396000f30060806040526004361061004c576000357c0100000000000000000000000000000000000000000000000000000000900463ffffffff16806379b1710714610051578063e68d3569146100f0575b600080fd5b34801561005d57600080fd5b506100ee600480360381019080803573ffffffffffffffffffffffffffffffffffffffff1690602001909291908035906020019082018035906020019190919293919293908035906020019082018035906020019190919293919293908035906020019092919080359060200190929190803590602001908201803590602001919091929391929390505050610107565b005b3480156100fc57600080fd5b506101056101eb565b005b7ffc03f71df1e09ce5e5ec587aa5402529766d7b9aea5c537ba8061fc5fd4d5f18898989898989898989604051808a73ffffffffffffffffffffffffffffffffffffffff1673ffffffffffffffffffffffffffffffffffffffff16815260200180602001806020018781526020018681526020018060200184810384528c8c82818152602001925080828437820191505084810383528a8a828181526020019250808284378201915050848103825286868281815260200192508082843782019150509c5050505050505050505050505060405180910390a1505050505050505050565b7fa4e0f79549b75e4717ea8ad32c4aa22be761fa5d771607b893bafdbf15d9623f6001600a671bc16d674ec8000060024233604051808781526020018681526020018581526020018481526020018381526020018273ffffffffffffffffffffffffffffffffffffffff1673ffffffffffffffffffffffffffffffffffffffff168152602001965050505050505060405180910390a15600a165627a7a72305820e190cfb3a00f95d34bcee9be56a6fe05a0d9b257e4c735da270534369b083f840029",
  "source": "\npragma solidity >=0.4.22 <0.7.0; \n\ncontract Borrow { \n\n    event BorrowAndTrade(uint256 tokenId, uint256 price, uint256 amount, uint256 slippage, uint256 timestamp, address user); \n\n    //event Order(address[] tokenPairs, string orderType, string direction, uint256 pay, uint256 borrow, uint256 interest, string status, uint256 timestamp, address user);\n\n    event CreateOrder(address tokenPairs, string orderType, string direction, uint256 pay, uint256 borrow, string status);\n        \n    function borrow () external { \n        emit BorrowAndTrade(1, 10, 2*10**18, 2, now, msg.sender); \n    } \n\n    function createOrder (address tokenPairs, string orderType, string direction, uint256 pay, uint256 borrow, string status) external { \n        \n        //InternalCompilerError: Stack too deep, try removing local variables.\n        //参数太多异常\n        // WETH：0xC02aaA39b223FE8D0A0e5C4F27eAD9083C756Cc2\n        emit  CreateOrder(tokenPairs, orderType, direction, pay, borrow, status);\n    }\n    \n} \n",
  "sourcePath": "/Users/zhouhe/blockchain/thegraph/ssubgraphp/contracts/Borrow.sol",
  "compiler": {
    "name": "solc",
    "version": "0.4.25+commit.59dbf8f1.Emscripten.clang"
  },
  "schemaVersion": "3.2.3",
  "updatedAt": "2021-02-01T11:38:53.297Z",
  "devdoc": {
    "methods": {}
  },
  "userdoc": {
    "methods": {}
  }
}