{
  "contractName": "Borrow",
  "abi": [
    {
      "anonymous": false,
      "inputs": [
        {
          "indexed": false,
          "name": "tokenId",
          "type": "uint256"
        },
        {
          "indexed": false,
          "name": "price",
          "type": "uint256"
        },
        {
          "indexed": false,
          "name": "amount",
          "type": "uint256"
        },
        {
          "indexed": false,
          "name": "slippage",
          "type": "uint256"
        },
        {
          "indexed": false,
          "name": "timestamp",
          "type": "uint256"
        },
        {
          "indexed": false,
          "name": "user",
          "type": "address"
        }
      ],
      "name": "BorrowAndTrade",
      "type": "event"
    },
    {
      "constant": false,
      "inputs": [],
      "name": "borrow",
      "outputs": [],
      "payable": false,
      "stateMutability": "nonpayable",
      "type": "function"
    }
  ],
  "bytecode": "0x6080604052348015600f57600080fd5b5061011c8061001f6000396000f300608060405260043610603f576000357c0100000000000000000000000000000000000000000000000000000000900463ffffffff168063e68d3569146044575b600080fd5b348015604f57600080fd5b5060566058565b005b7fa4e0f79549b75e4717ea8ad32c4aa22be761fa5d771607b893bafdbf15d9623f6001600a671bc16d674ec8000060024233604051808781526020018681526020018581526020018481526020018381526020018273ffffffffffffffffffffffffffffffffffffffff1673ffffffffffffffffffffffffffffffffffffffff168152602001965050505050505060405180910390a15600a165627a7a723058206dc87e0243e174380815ce346d6fd0585ec129cd21799bf5cc4817a752db46330029",
  "source": "\npragma solidity >=0.4.22 <0.7.0; \n\ncontract Borrow { \n\n    event BorrowAndTrade(uint256 tokenId, uint256 price, uint256 amount, uint256 slippage, uint256 timestamp, address user); \n\n    function borrow () external { \n        emit BorrowAndTrade(1, 10, 2*10**18, 2, now, msg.sender); \n    } \n} \n",
  "sourcePath": "/Users/zhouhe/blockchain/thegraph/ssubgraphp/contracts/Borrow.sol",
  "compiler": {
    "name": "solc",
    "version": "0.4.25+commit.59dbf8f1.Emscripten.clang"
  },
  "schemaVersion": "3.2.3",
  "updatedAt": "2021-01-29T06:56:06.249Z",
  "devdoc": {
    "methods": {}
  },
  "userdoc": {
    "methods": {}
  }
}