{
  "contractName": "Borrow",
  "abi": [
    {
      "anonymous": false,
      "inputs": [
        {
          "indexed": false,
          "name": "tokenId",
          "type": "uint256"
        },
        {
          "indexed": false,
          "name": "price",
          "type": "uint256"
        },
        {
          "indexed": false,
          "name": "amount",
          "type": "uint256"
        },
        {
          "indexed": false,
          "name": "slippage",
          "type": "uint256"
        },
        {
          "indexed": false,
          "name": "timestamp",
          "type": "uint256"
        },
        {
          "indexed": false,
          "name": "user",
          "type": "address"
        }
      ],
      "name": "BorrowAndTrade",
      "type": "event"
    },
    {
      "anonymous": false,
      "inputs": [
        {
          "indexed": false,
          "name": "tokenPairs",
          "type": "address[]"
        },
        {
          "indexed": false,
          "name": "orderType",
          "type": "string"
        },
        {
          "indexed": false,
          "name": "direction",
          "type": "string"
        },
        {
          "indexed": false,
          "name": "pay",
          "type": "uint256"
        },
        {
          "indexed": false,
          "name": "borrow",
          "type": "uint256"
        },
        {
          "indexed": false,
          "name": "status",
          "type": "string"
        }
      ],
      "name": "CreateOrder",
      "type": "event"
    },
    {
      "constant": false,
      "inputs": [],
      "name": "borrow",
      "outputs": [],
      "payable": false,
      "stateMutability": "nonpayable",
      "type": "function"
    },
    {
      "constant": false,
      "inputs": [
        {
          "name": "tokenPairs",
          "type": "address[]"
        },
        {
          "name": "orderType",
          "type": "string"
        },
        {
          "name": "direction",
          "type": "string"
        },
        {
          "name": "pay",
          "type": "uint256"
        },
        {
          "name": "borrow",
          "type": "uint256"
        },
        {
          "name": "status",
          "type": "string"
        }
      ],
      "name": "order",
      "outputs": [],
      "payable": false,
      "stateMutability": "nonpayable",
      "type": "function"
    }
  ],
  "bytecode": "0x608060405234801561001057600080fd5b50610299806100206000396000f30060806040526004361061004c576000357c0100000000000000000000000000000000000000000000000000000000900463ffffffff16806329c8f49714610051578063e68d3569146100e8575b600080fd5b34801561005d57600080fd5b506100e660048036038101908080359060200190820180359060200191909192939192939080359060200190820180359060200191909192939192939080359060200190820180359060200191909192939192939080359060200190929190803590602001909291908035906020019082018035906020019190919293919293905050506100ff565b005b3480156100f457600080fd5b506100fd6101d5565b005b7f5473dbee84261902432244efcfb48d65a7de68ea0d296de957c36b7f195d48ca8a8a8a8a8a8a8a8a8a8a604051808060200180602001806020018881526020018781526020018060200185810385528f8f82818152602001925060200280828437820191505085810384528d8d82818152602001925080828437820191505085810383528b8b828181526020019250808284378201915050858103825287878281815260200192508082843782019150509e50505050505050505050505050505060405180910390a150505050505050505050565b7fa4e0f79549b75e4717ea8ad32c4aa22be761fa5d771607b893bafdbf15d9623f6001600a671bc16d674ec8000060024233604051808781526020018681526020018581526020018481526020018381526020018273ffffffffffffffffffffffffffffffffffffffff1673ffffffffffffffffffffffffffffffffffffffff168152602001965050505050505060405180910390a15600a165627a7a72305820b603109d6cc2b8d098891c27c3d122691a5b9c1d2ffbc0826ef4f6fd48a18e6b0029",
  "source": "\npragma solidity >=0.4.22 <0.7.0; \n\ncontract Borrow { \n\n    event BorrowAndTrade(uint256 tokenId, uint256 price, uint256 amount, uint256 slippage, uint256 timestamp, address user); \n\n    //event Order(address[] tokenPairs, string orderType, string direction, uint256 pay, uint256 borrow, uint256 interest, string status, uint256 timestamp, address user);\n\n    event CreateOrder(address[] tokenPairs, string orderType, string direction, uint256 pay, uint256 borrow, string status);\n        \n    function borrow () external { \n        emit BorrowAndTrade(1, 10, 2*10**18, 2, now, msg.sender); \n    } \n\n    function order (address[] tokenPairs, string orderType, string direction, uint256 pay, uint256 borrow, string status) external { \n        \n        //InternalCompilerError: Stack too deep, try removing local variables.\n        //参数太多异常\n        // WETH：0xC02aaA39b223FE8D0A0e5C4F27eAD9083C756Cc2\n        emit  CreateOrder(tokenPairs, orderType, direction, pay, borrow, status);\n    }\n    \n} \n",
  "sourcePath": "/Users/zhouhe/blockchain/thegraph/ssubgraphp/contracts/Borrow.sol",
  "compiler": {
    "name": "solc",
    "version": "0.4.25+commit.59dbf8f1.Emscripten.clang"
  },
  "schemaVersion": "3.2.3",
  "updatedAt": "2021-02-01T09:08:16.230Z",
  "devdoc": {
    "methods": {}
  },
  "userdoc": {
    "methods": {}
  }
}